{"abi":[{"type":"constructor","inputs":[{"name":"initMessage","type":"string","internalType":"string"}],"stateMutability":"nonpayable"},{"type":"function","name":"message","inputs":[],"outputs":[{"name":"","type":"string","internalType":"string"}],"stateMutability":"view"},{"type":"function","name":"updateMessage","inputs":[{"name":"newMessage","type":"string","internalType":"string"}],"outputs":[],"stateMutability":"nonpayable"}],"bytecode":{"object":"0x608060405234801561000f575f80fd5b506040516105eb3803806105eb83398101604081905261002e91610054565b5f610039828261019c565b5050610257565b634e487b7160e01b5f52604160045260245ffd5b5f6020808385031215610065575f80fd5b82516001600160401b038082111561007b575f80fd5b818501915085601f83011261008e575f80fd5b8151818111156100a0576100a0610040565b604051601f8201601f19908116603f011681019083821181831017156100c8576100c8610040565b8160405282815288868487010111156100df575f80fd5b5f93505b8284101561010057848401860151818501870152928501926100e3565b5f86848301015280965050505050505092915050565b600181811c9082168061012a57607f821691505b60208210810361014857634e487b7160e01b5f52602260045260245ffd5b50919050565b601f821115610197575f81815260208120601f850160051c810160208610156101745750805b601f850160051c820191505b8181101561019357828155600101610180565b5050505b505050565b81516001600160401b038111156101b5576101b5610040565b6101c9816101c38454610116565b8461014e565b602080601f8311600181146101fc575f84156101e55750858301515b5f19600386901b1c1916600185901b178555610193565b5f85815260208120601f198616915b8281101561022a5788860151825594840194600190910190840161020b565b508582101561024757878501515f19600388901b60f8161c191681555b5050505050600190811b01905550565b610387806102645f395ff3fe608060405234801561000f575f80fd5b5060043610610034575f3560e01c80631923be2414610038578063e21f37ce1461004d575b5f80fd5b61004b610046366004610119565b61006b565b005b61005561007a565b60405161006291906101c4565b60405180910390f35b5f6100768282610295565b5050565b5f80546100869061020f565b80601f01602080910402602001604051908101604052809291908181526020018280546100b29061020f565b80156100fd5780601f106100d4576101008083540402835291602001916100fd565b820191905f5260205f20905b8154815290600101906020018083116100e057829003601f168201915b505050505081565b634e487b7160e01b5f52604160045260245ffd5b5f60208284031215610129575f80fd5b813567ffffffffffffffff80821115610140575f80fd5b818401915084601f830112610153575f80fd5b81358181111561016557610165610105565b604051601f8201601f19908116603f0116810190838211818310171561018d5761018d610105565b816040528281528760208487010111156101a5575f80fd5b826020860160208301375f928101602001929092525095945050505050565b5f6020808352835180828501525f5b818110156101ef578581018301518582016040015282016101d3565b505f604082860101526040601f19601f8301168501019250505092915050565b600181811c9082168061022357607f821691505b60208210810361024157634e487b7160e01b5f52602260045260245ffd5b50919050565b601f821115610290575f81815260208120601f850160051c8101602086101561026d5750805b601f850160051c820191505b8181101561028c57828155600101610279565b5050505b505050565b815167ffffffffffffffff8111156102af576102af610105565b6102c3816102bd845461020f565b84610247565b602080601f8311600181146102f6575f84156102df5750858301515b5f19600386901b1c1916600185901b17855561028c565b5f85815260208120601f198616915b8281101561032457888601518255948401946001909101908401610305565b508582101561034157878501515f19600388901b60f8161c191681555b5050505050600190811b0190555056fea2646970667358221220f1e3f3e5be74eb18dbdaeda74f9e6e9f827bd107b252cfd657b3ab4b17a900a364736f6c63430008150033","linkReferences":{}},"methodIdentifiers":{"message()":"e21f37ce","updateMessage(string)":"1923be24"},"id":0}